{
  "contractName": "CrowdfundingFactory",
  "abi": [
    {
      "inputs": [],
      "stateMutability": "nonpayable",
      "type": "constructor"
    },
    {
      "inputs": [
        {
          "internalType": "uint256",
          "name": "",
          "type": "uint256"
        }
      ],
      "name": "campaigns",
      "outputs": [
        {
          "internalType": "address",
          "name": "campaignAddress",
          "type": "address"
        },
        {
          "internalType": "address",
          "name": "owner",
          "type": "address"
        },
        {
          "internalType": "string",
          "name": "name",
          "type": "string"
        },
        {
          "internalType": "uint256",
          "name": "creationTime",
          "type": "uint256"
        }
      ],
      "stateMutability": "view",
      "type": "function",
      "constant": true
    },
    {
      "inputs": [],
      "name": "owner",
      "outputs": [
        {
          "internalType": "address",
          "name": "",
          "type": "address"
        }
      ],
      "stateMutability": "view",
      "type": "function",
      "constant": true
    },
    {
      "inputs": [],
      "name": "paused",
      "outputs": [
        {
          "internalType": "bool",
          "name": "",
          "type": "bool"
        }
      ],
      "stateMutability": "view",
      "type": "function",
      "constant": true
    },
    {
      "inputs": [
        {
          "internalType": "address",
          "name": "",
          "type": "address"
        },
        {
          "internalType": "uint256",
          "name": "",
          "type": "uint256"
        }
      ],
      "name": "userCampaigns",
      "outputs": [
        {
          "internalType": "address",
          "name": "campaignAddress",
          "type": "address"
        },
        {
          "internalType": "address",
          "name": "owner",
          "type": "address"
        },
        {
          "internalType": "string",
          "name": "name",
          "type": "string"
        },
        {
          "internalType": "uint256",
          "name": "creationTime",
          "type": "uint256"
        }
      ],
      "stateMutability": "view",
      "type": "function",
      "constant": true
    },
    {
      "inputs": [
        {
          "internalType": "string",
          "name": "_name",
          "type": "string"
        },
        {
          "internalType": "string",
          "name": "_description",
          "type": "string"
        },
        {
          "internalType": "uint256",
          "name": "_goal",
          "type": "uint256"
        },
        {
          "internalType": "uint256",
          "name": "_durationInDays",
          "type": "uint256"
        }
      ],
      "name": "createCampaign",
      "outputs": [],
      "stateMutability": "nonpayable",
      "type": "function"
    },
    {
      "inputs": [
        {
          "internalType": "address",
          "name": "_user",
          "type": "address"
        }
      ],
      "name": "getUserCampaigns",
      "outputs": [
        {
          "components": [
            {
              "internalType": "address",
              "name": "campaignAddress",
              "type": "address"
            },
            {
              "internalType": "address",
              "name": "owner",
              "type": "address"
            },
            {
              "internalType": "string",
              "name": "name",
              "type": "string"
            },
            {
              "internalType": "uint256",
              "name": "creationTime",
              "type": "uint256"
            }
          ],
          "internalType": "struct CrowdfundingFactory.Campaign[]",
          "name": "",
          "type": "tuple[]"
        }
      ],
      "stateMutability": "view",
      "type": "function",
      "constant": true
    },
    {
      "inputs": [],
      "name": "getAllCampaigns",
      "outputs": [
        {
          "components": [
            {
              "internalType": "address",
              "name": "campaignAddress",
              "type": "address"
            },
            {
              "internalType": "address",
              "name": "owner",
              "type": "address"
            },
            {
              "internalType": "string",
              "name": "name",
              "type": "string"
            },
            {
              "internalType": "uint256",
              "name": "creationTime",
              "type": "uint256"
            }
          ],
          "internalType": "struct CrowdfundingFactory.Campaign[]",
          "name": "",
          "type": "tuple[]"
        }
      ],
      "stateMutability": "view",
      "type": "function",
      "constant": true
    },
    {
      "inputs": [],
      "name": "togglePause",
      "outputs": [],
      "stateMutability": "nonpayable",
      "type": "function"
    }
  ],
  "bytecode": "0x608060405234801561001057600080fd5b50336000806101000a81548173ffffffffffffffffffffffffffffffffffffffff021916908373ffffffffffffffffffffffffffffffffffffffff160217905550613edb806100606000396000f3fe60806040523480156200001157600080fd5b5060043610620000945760003560e01c80638da5cb5b11620000635780638da5cb5b146200014f578063a1e5084c1462000171578063a318f26914620001a7578063c4ae316814620001c75762000094565b8063141961bc146200009957806319ac74bd14620000d25780635c975abb146200010b57806386cdf604146200012d575b600080fd5b620000b76004803603810190620000b1919062000dfe565b620001d3565b604051620000c99493929190620010a4565b60405180910390f35b620000f06004803603810190620000ea919062000d1f565b620002e4565b604051620001029493929190620010a4565b60405180910390f35b6200011562000402565b60405162000124919062001187565b60405180910390f35b6200013762000415565b60405162000146919062001163565b60405180910390f35b62000159620005c6565b60405162000168919062001087565b60405180910390f35b6200018f600480360381019062000189919062000cf3565b620005ea565b6040516200019e919062001163565b60405180910390f35b620001c56004803603810190620001bf919062000d60565b620007da565b005b620001d162000ad8565b005b60018181548110620001e457600080fd5b90600052602060002090600402016000915090508060000160009054906101000a900473ffffffffffffffffffffffffffffffffffffffff16908060010160009054906101000a900473ffffffffffffffffffffffffffffffffffffffff1690806002018054620002559062001344565b80601f0160208091040260200160405190810160405280929190818152602001828054620002839062001344565b8015620002d45780601f10620002a857610100808354040283529160200191620002d4565b820191906000526020600020905b815481529060010190602001808311620002b657829003601f168201915b5050505050908060030154905084565b600260205281600052604060002081815481106200030157600080fd5b9060005260206000209060040201600091509150508060000160009054906101000a900473ffffffffffffffffffffffffffffffffffffffff16908060010160009054906101000a900473ffffffffffffffffffffffffffffffffffffffff1690806002018054620003739062001344565b80601f0160208091040260200160405190810160405280929190818152602001828054620003a19062001344565b8015620003f25780601f10620003c657610100808354040283529160200191620003f2565b820191906000526020600020905b815481529060010190602001808311620003d457829003601f168201915b5050505050908060030154905084565b600060149054906101000a900460ff1681565b60606001805480602002602001604051908101604052809291908181526020016000905b82821015620005bd57838290600052602060002090600402016040518060800160405290816000820160009054906101000a900473ffffffffffffffffffffffffffffffffffffffff1673ffffffffffffffffffffffffffffffffffffffff1673ffffffffffffffffffffffffffffffffffffffff1681526020016001820160009054906101000a900473ffffffffffffffffffffffffffffffffffffffff1673ffffffffffffffffffffffffffffffffffffffff1673ffffffffffffffffffffffffffffffffffffffff1681526020016002820180546200051b9062001344565b80601f0160208091040260200160405190810160405280929190818152602001828054620005499062001344565b80156200059a5780601f106200056e576101008083540402835291602001916200059a565b820191906000526020600020905b8154815290600101906020018083116200057c57829003601f168201915b505050505081526020016003820154815250508152602001906001019062000439565b50505050905090565b60008054906101000a900473ffffffffffffffffffffffffffffffffffffffff1681565b6060600260008373ffffffffffffffffffffffffffffffffffffffff1673ffffffffffffffffffffffffffffffffffffffff168152602001908152602001600020805480602002602001604051908101604052809291908181526020016000905b82821015620007cf57838290600052602060002090600402016040518060800160405290816000820160009054906101000a900473ffffffffffffffffffffffffffffffffffffffff1673ffffffffffffffffffffffffffffffffffffffff1673ffffffffffffffffffffffffffffffffffffffff1681526020016001820160009054906101000a900473ffffffffffffffffffffffffffffffffffffffff1673ffffffffffffffffffffffffffffffffffffffff1673ffffffffffffffffffffffffffffffffffffffff1681526020016002820180546200072d9062001344565b80601f01602080910402602001604051908101604052809291908181526020018280546200075b9062001344565b8015620007ac5780601f106200078057610100808354040283529160200191620007ac565b820191906000526020600020905b8154815290600101906020018083116200078e57829003601f168201915b50505050508152602001600382015481525050815260200190600101906200064b565b505050509050919050565b600060149054906101000a900460ff16156200082d576040517f08c379a00000000000000000000000000000000000000000000000000000000081526004016200082490620011a4565b60405180910390fd5b60003385858585604051620008429062000b95565b62000852959493929190620010f8565b604051809103906000f0801580156200086f573d6000803e3d6000fd5b5090506000819050600060405180608001604052808373ffffffffffffffffffffffffffffffffffffffff1681526020013373ffffffffffffffffffffffffffffffffffffffff168152602001888152602001428152509050600181908060018154018082558091505060019003906000526020600020906004020160009091909190915060008201518160000160006101000a81548173ffffffffffffffffffffffffffffffffffffffff021916908373ffffffffffffffffffffffffffffffffffffffff16021790555060208201518160010160006101000a81548173ffffffffffffffffffffffffffffffffffffffff021916908373ffffffffffffffffffffffffffffffffffffffff1602179055506040820151816002019080519060200190620009a092919062000ba3565b50606082015181600301555050600260003373ffffffffffffffffffffffffffffffffffffffff1673ffffffffffffffffffffffffffffffffffffffff16815260200190815260200160002081908060018154018082558091505060019003906000526020600020906004020160009091909190915060008201518160000160006101000a81548173ffffffffffffffffffffffffffffffffffffffff021916908373ffffffffffffffffffffffffffffffffffffffff16021790555060208201518160010160006101000a81548173ffffffffffffffffffffffffffffffffffffffff021916908373ffffffffffffffffffffffffffffffffffffffff160217905550604082015181600201908051906020019062000ac292919062000ba3565b5060608201518160030155505050505050505050565b60008054906101000a900473ffffffffffffffffffffffffffffffffffffffff1673ffffffffffffffffffffffffffffffffffffffff163373ffffffffffffffffffffffffffffffffffffffff161462000b69576040517f08c379a000000000000000000000000000000000000000000000000000000000815260040162000b6090620011c6565b60405180910390fd5b600060149054906101000a900460ff1615600060146101000a81548160ff021916908315150217905550565b612a88806200141e83390190565b82805462000bb19062001344565b90600052602060002090601f01602090048101928262000bd5576000855562000c21565b82601f1062000bf057805160ff191683800117855562000c21565b8280016001018555821562000c21579182015b8281111562000c2057825182559160200191906001019062000c03565b5b50905062000c30919062000c34565b5090565b5b8082111562000c4f57600081600090555060010162000c35565b5090565b600062000c6a62000c64846200121c565b620011e8565b90508281526020810184848401111562000c8357600080fd5b62000c90848285620012ff565b509392505050565b60008135905062000ca981620013e9565b92915050565b600082601f83011262000cc157600080fd5b813562000cd384826020860162000c53565b91505092915050565b60008135905062000ced8162001403565b92915050565b60006020828403121562000d0657600080fd5b600062000d168482850162000c98565b91505092915050565b6000806040838503121562000d3357600080fd5b600062000d438582860162000c98565b925050602062000d568582860162000cdc565b9150509250929050565b6000806000806080858703121562000d7757600080fd5b600085013567ffffffffffffffff81111562000d9257600080fd5b62000da08782880162000caf565b945050602085013567ffffffffffffffff81111562000dbe57600080fd5b62000dcc8782880162000caf565b935050604062000ddf8782880162000cdc565b925050606062000df28782880162000cdc565b91505092959194509250565b60006020828403121562000e1157600080fd5b600062000e218482850162000cdc565b91505092915050565b600062000e38838362000ffa565b905092915050565b62000e4b81620012b5565b82525050565b62000e5c81620012b5565b82525050565b600062000e6f826200125f565b62000e7b818562001282565b93508360208202850162000e8f856200124f565b8060005b8581101562000ed1578484038952815162000eaf858262000e2a565b945062000ebc8362001275565b925060208a0199505060018101905062000e93565b50829750879550505050505092915050565b62000eee81620012c9565b82525050565b600062000f01826200126a565b62000f0d818562001293565b935062000f1f8185602086016200130e565b62000f2a81620013d8565b840191505092915050565b600062000f42826200126a565b62000f4e8185620012a4565b935062000f608185602086016200130e565b62000f6b81620013d8565b840191505092915050565b600062000f85601183620012a4565b91507f466163746f7279206973207061757365640000000000000000000000000000006000830152602082019050919050565b600062000fc7600a83620012a4565b91507f4e6f74206f776e65722e000000000000000000000000000000000000000000006000830152602082019050919050565b600060808301600083015162001014600086018262000e40565b50602083015162001029602086018262000e40565b506040830151848203604086015262001043828262000ef4565b91505060608301516200105a606086018262001065565b508091505092915050565b6200107081620012f5565b82525050565b6200108181620012f5565b82525050565b60006020820190506200109e600083018462000e51565b92915050565b6000608082019050620010bb600083018762000e51565b620010ca602083018662000e51565b8181036040830152620010de818562000f35565b9050620010ef606083018462001076565b95945050505050565b600060a0820190506200110f600083018862000e51565b818103602083015262001123818762000f35565b9050818103604083015262001139818662000f35565b90506200114a606083018562001076565b62001159608083018462001076565b9695505050505050565b600060208201905081810360008301526200117f818462000e62565b905092915050565b60006020820190506200119e600083018462000ee3565b92915050565b60006020820190508181036000830152620011bf8162000f76565b9050919050565b60006020820190508181036000830152620011e18162000fb8565b9050919050565b6000604051905081810181811067ffffffffffffffff82111715620012125762001211620013a9565b5b8060405250919050565b600067ffffffffffffffff8211156200123a5762001239620013a9565b5b601f19601f8301169050602081019050919050565b6000819050602082019050919050565b600081519050919050565b600081519050919050565b6000602082019050919050565b600082825260208201905092915050565b600082825260208201905092915050565b600082825260208201905092915050565b6000620012c282620012d5565b9050919050565b60008115159050919050565b600073ffffffffffffffffffffffffffffffffffffffff82169050919050565b6000819050919050565b82818337600083830152505050565b60005b838110156200132e57808201518184015260208101905062001311565b838111156200133e576000848401525b50505050565b600060028204905060018216806200135d57607f821691505b602082108114156200137457620013736200137a565b5b50919050565b7f4e487b7100000000000000000000000000000000000000000000000000000000600052602260045260246000fd5b7f4e487b7100000000000000000000000000000000000000000000000000000000600052604160045260246000fd5b6000601f19601f8301169050919050565b620013f481620012b5565b81146200140057600080fd5b50565b6200140e81620012f5565b81146200141a57600080fd5b5056fe60806040523480156200001157600080fd5b5060405162002a8838038062002a88833981810160405281019062000037919062000282565b83600090805190602001906200004f92919062000132565b5082600190805190602001906200006892919062000132565b50816002819055506201518081620000819190620003fa565b426200008e91906200039d565b60038190555084600460006101000a81548173ffffffffffffffffffffffffffffffffffffffff021916908373ffffffffffffffffffffffffffffffffffffffff1602179055506000600460156101000a81548160ff0219169083600281111562000122577f4e487b7100000000000000000000000000000000000000000000000000000000600052602160045260246000fd5b02179055505050505050620005c6565b8280546200014090620004cf565b90600052602060002090601f016020900481019282620001645760008555620001b0565b82601f106200017f57805160ff1916838001178555620001b0565b82800160010185558215620001b0579182015b82811115620001af57825182559160200191906001019062000192565b5b509050620001bf9190620001c3565b5090565b5b80821115620001de576000816000905550600101620001c4565b5090565b6000620001f9620001f3846200036a565b62000336565b9050828152602081018484840111156200021257600080fd5b6200021f84828562000499565b509392505050565b600081519050620002388162000592565b92915050565b600082601f8301126200025057600080fd5b815162000262848260208601620001e2565b91505092915050565b6000815190506200027c81620005ac565b92915050565b600080600080600060a086880312156200029b57600080fd5b6000620002ab8882890162000227565b955050602086015167ffffffffffffffff811115620002c957600080fd5b620002d7888289016200023e565b945050604086015167ffffffffffffffff811115620002f557600080fd5b62000303888289016200023e565b935050606062000316888289016200026b565b925050608062000329888289016200026b565b9150509295509295909350565b6000604051905081810181811067ffffffffffffffff8211171562000360576200035f62000563565b5b8060405250919050565b600067ffffffffffffffff82111562000388576200038762000563565b5b601f19601f8301169050602081019050919050565b6000620003aa826200048f565b9150620003b7836200048f565b9250827fffffffffffffffffffffffffffffffffffffffffffffffffffffffffffffffff03821115620003ef57620003ee62000505565b5b828201905092915050565b600062000407826200048f565b915062000414836200048f565b9250817fffffffffffffffffffffffffffffffffffffffffffffffffffffffffffffffff048311821515161562000450576200044f62000505565b5b828202905092915050565b600062000468826200046f565b9050919050565b600073ffffffffffffffffffffffffffffffffffffffff82169050919050565b6000819050919050565b60005b83811015620004b95780820151818401526020810190506200049c565b83811115620004c9576000848401525b50505050565b60006002820490506001821680620004e857607f821691505b60208210811415620004ff57620004fe62000534565b5b50919050565b7f4e487b7100000000000000000000000000000000000000000000000000000000600052601160045260246000fd5b7f4e487b7100000000000000000000000000000000000000000000000000000000600052602260045260246000fd5b7f4e487b7100000000000000000000000000000000000000000000000000000000600052604160045260246000fd5b6200059d816200045b565b8114620005a957600080fd5b50565b620005b7816200048f565b8114620005c357600080fd5b50565b6124b280620005d66000396000f3fe60806040526004361061011f5760003560e01c80637284e416116100a0578063b85dfb8011610064578063b85dfb80146103a1578063c19d93fb146103de578063c4ae316814610409578063ca1d209d14610420578063de1705701461043c5761011f565b80637284e416146102bc5780637497211b146102e75780637adba527146103105780638da5cb5b1461034d5780638ece7b91146103785761011f565b80633ccfd60b116100e75780633ccfd60b1461020d5780634019388314610224578063590e1ae31461024f5780635c975abb146102665780636f9fb98a146102915761011f565b8063039af9eb1461012457806306fdde0314610163578063105505151461018e57806329dcb0cf146101b9578063389b7533146101e4575b600080fd5b34801561013057600080fd5b5061014b600480360381019061014691906119cb565b610467565b60405161015a93929190611edf565b60405180910390f35b34801561016f57600080fd5b50610178610529565b6040516101859190611ebd565b60405180910390f35b34801561019a57600080fd5b506101a36105b7565b6040516101b09190611ea2565b60405180910390f35b3480156101c557600080fd5b506101ce61067e565b6040516101db919061207d565b60405180910390f35b3480156101f057600080fd5b5061020b600480360381019061020691906119cb565b610684565b005b34801561021957600080fd5b50610222610800565b005b34801561023057600080fd5b50610239610a0e565b604051610246919061207d565b60405180910390f35b34801561025b57600080fd5b50610264610a14565b005b34801561027257600080fd5b5061027b610bf9565b6040516102889190611e87565b60405180910390f35b34801561029d57600080fd5b506102a6610c0c565b6040516102b3919061207d565b60405180910390f35b3480156102c857600080fd5b506102d1610c14565b6040516102de9190611ebd565b60405180910390f35b3480156102f357600080fd5b5061030e600480360381019061030991906119cb565b610ca2565b005b34801561031c57600080fd5b506103376004803603810190610332919061193b565b610ec5565b6040516103449190611e87565b60405180910390f35b34801561035957600080fd5b50610362610f30565b60405161036f9190611e4a565b60405180910390f35b34801561038457600080fd5b5061039f600480360381019061039a9190611977565b610f56565b005b3480156103ad57600080fd5b506103c860048036038101906103c39190611912565b6110a7565b6040516103d5919061207d565b60405180910390f35b3480156103ea57600080fd5b506103f36110c5565b6040516104009190611ea2565b60405180910390f35b34801561041557600080fd5b5061041e6110d8565b005b61043a600480360381019061043591906119cb565b611194565b005b34801561044857600080fd5b506104516114ab565b60405161045e9190611e65565b60405180910390f35b6005818154811061047757600080fd5b906000526020600020906003020160009150905080600001805461049a906122f2565b80601f01602080910402602001604051908101604052809291908181526020018280546104c6906122f2565b80156105135780601f106104e857610100808354040283529160200191610513565b820191906000526020600020905b8154815290600101906020018083116104f657829003601f168201915b5050505050908060010154908060020154905083565b60008054610536906122f2565b80601f0160208091040260200160405190810160405280929190818152602001828054610562906122f2565b80156105af5780601f10610584576101008083540402835291602001916105af565b820191906000526020600020905b81548152906001019060200180831161059257829003601f168201915b505050505081565b60008060028111156105f2577f4e487b7100000000000000000000000000000000000000000000000000000000600052602160045260246000fd5b600460159054906101000a900460ff16600281111561063a577f4e487b7100000000000000000000000000000000000000000000000000000000600052602160045260246000fd5b148015610648575060035442115b156106685760025447101561065e576002610661565b60015b905061067b565b600460159054906101000a900460ff1690505b90565b60035481565b600460009054906101000a900473ffffffffffffffffffffffffffffffffffffffff1673ffffffffffffffffffffffffffffffffffffffff163373ffffffffffffffffffffffffffffffffffffffff1614610714576040517f08c379a000000000000000000000000000000000000000000000000000000000815260040161070b90611f7d565b60405180910390fd5b6000600281111561074e577f4e487b7100000000000000000000000000000000000000000000000000000000600052602160045260246000fd5b600460159054906101000a900460ff166002811115610796577f4e487b7100000000000000000000000000000000000000000000000000000000600052602160045260246000fd5b146107d6576040517f08c379a00000000000000000000000000000000000000000000000000000000081526004016107cd90611f9d565b60405180910390fd5b62015180816107e591906121b5565b600360008282546107f6919061215f565b9250508190555050565b600460009054906101000a900473ffffffffffffffffffffffffffffffffffffffff1673ffffffffffffffffffffffffffffffffffffffff163373ffffffffffffffffffffffffffffffffffffffff1614610890576040517f08c379a000000000000000000000000000000000000000000000000000000000815260040161088790611f7d565b60405180910390fd5b6108986115b0565b600160028111156108d2577f4e487b7100000000000000000000000000000000000000000000000000000000600052602160045260246000fd5b600460159054906101000a900460ff16600281111561091a577f4e487b7100000000000000000000000000000000000000000000000000000000600052602160045260246000fd5b1461095a576040517f08c379a00000000000000000000000000000000000000000000000000000000081526004016109519061201d565b60405180910390fd5b6000479050600081116109a2576040517f08c379a000000000000000000000000000000000000000000000000000000000815260040161099990611ffd565b60405180910390fd5b600460009054906101000a900473ffffffffffffffffffffffffffffffffffffffff1673ffffffffffffffffffffffffffffffffffffffff166108fc829081150290604051600060405180830381858888f19350505050158015610a0a573d6000803e3d6000fd5b5050565b60025481565b610a1c6115b0565b600280811115610a55577f4e487b7100000000000000000000000000000000000000000000000000000000600052602160045260246000fd5b600460159054906101000a900460ff166002811115610a9d577f4e487b7100000000000000000000000000000000000000000000000000000000600052602160045260246000fd5b14610add576040517f08c379a0000000000000000000000000000000000000000000000000000000008152600401610ad490611f3d565b60405180910390fd5b6000600660003373ffffffffffffffffffffffffffffffffffffffff1673ffffffffffffffffffffffffffffffffffffffff16815260200190815260200160002060000154905060008111610b67576040517f08c379a0000000000000000000000000000000000000000000000000000000008152600401610b5e90611fbd565b60405180910390fd5b6000600660003373ffffffffffffffffffffffffffffffffffffffff1673ffffffffffffffffffffffffffffffffffffffff168152602001908152602001600020600001819055503373ffffffffffffffffffffffffffffffffffffffff166108fc829081150290604051600060405180830381858888f19350505050158015610bf5573d6000803e3d6000fd5b5050565b600460149054906101000a900460ff1681565b600047905090565b60018054610c21906122f2565b80601f0160208091040260200160405190810160405280929190818152602001828054610c4d906122f2565b8015610c9a5780601f10610c6f57610100808354040283529160200191610c9a565b820191906000526020600020905b815481529060010190602001808311610c7d57829003601f168201915b505050505081565b600460009054906101000a900473ffffffffffffffffffffffffffffffffffffffff1673ffffffffffffffffffffffffffffffffffffffff163373ffffffffffffffffffffffffffffffffffffffff1614610d32576040517f08c379a0000000000000000000000000000000000000000000000000000000008152600401610d2990611f7d565b60405180910390fd5b6005805490508110610d79576040517f08c379a0000000000000000000000000000000000000000000000000000000008152600401610d7090611fdd565b60405180910390fd5b60056001600580549050610d8d919061220f565b81548110610dc4577f4e487b7100000000000000000000000000000000000000000000000000000000600052603260045260246000fd5b906000526020600020906003020160058281548110610e0c577f4e487b7100000000000000000000000000000000000000000000000000000000600052603260045260246000fd5b90600052602060002090600302016000820181600001908054610e2e906122f2565b610e39929190611710565b5060018201548160010155600282015481600201559050506005805480610e89577f4e487b7100000000000000000000000000000000000000000000000000000000600052603160045260246000fd5b600190038181906000526020600020906003020160008082016000610eae919061179d565b600182016000905560028201600090555050905550565b6000600660008473ffffffffffffffffffffffffffffffffffffffff1673ffffffffffffffffffffffffffffffffffffffff168152602001908152602001600020600101600083815260200190815260200160002060009054906101000a900460ff16905092915050565b600460009054906101000a900473ffffffffffffffffffffffffffffffffffffffff1681565b600460009054906101000a900473ffffffffffffffffffffffffffffffffffffffff1673ffffffffffffffffffffffffffffffffffffffff163373ffffffffffffffffffffffffffffffffffffffff1614610fe6576040517f08c379a0000000000000000000000000000000000000000000000000000000008152600401610fdd90611f7d565b60405180910390fd5b60008111611029576040517f08c379a000000000000000000000000000000000000000000000000000000000815260040161102090611f1d565b60405180910390fd5b6005604051806060016040528084815260200183815260200160008152509080600181540180825580915050600190039060005260206000209060030201600090919091909150600082015181600001908051906020019061108c9291906117dd565b50602082015181600101556040820151816002015550505050565b60066020528060005260406000206000915090508060000154905081565b600460159054906101000a900460ff1681565b600460009054906101000a900473ffffffffffffffffffffffffffffffffffffffff1673ffffffffffffffffffffffffffffffffffffffff163373ffffffffffffffffffffffffffffffffffffffff1614611168576040517f08c379a000000000000000000000000000000000000000000000000000000000815260040161115f90611f7d565b60405180910390fd5b600460149054906101000a900460ff1615600460146101000a81548160ff021916908315150217905550565b600060028111156111ce577f4e487b7100000000000000000000000000000000000000000000000000000000600052602160045260246000fd5b600460159054906101000a900460ff166002811115611216577f4e487b7100000000000000000000000000000000000000000000000000000000600052602160045260246000fd5b14611256576040517f08c379a000000000000000000000000000000000000000000000000000000000815260040161124d90611f9d565b60405180910390fd5b600460149054906101000a900460ff16156112a6576040517f08c379a000000000000000000000000000000000000000000000000000000000815260040161129d9061205d565b60405180910390fd5b60058054905081106112ed576040517f08c379a00000000000000000000000000000000000000000000000000000000081526004016112e490611f5d565b60405180910390fd5b60058181548110611327577f4e487b7100000000000000000000000000000000000000000000000000000000600052603260045260246000fd5b906000526020600020906003020160010154341461137a576040517f08c379a00000000000000000000000000000000000000000000000000000000081526004016113719061203d565b60405180910390fd5b600581815481106113b4577f4e487b7100000000000000000000000000000000000000000000000000000000600052603260045260246000fd5b906000526020600020906003020160020160008154809291906113d690612324565b919050555034600660003373ffffffffffffffffffffffffffffffffffffffff1673ffffffffffffffffffffffffffffffffffffffff168152602001908152602001600020600001600082825461142d919061215f565b925050819055506001600660003373ffffffffffffffffffffffffffffffffffffffff1673ffffffffffffffffffffffffffffffffffffffff168152602001908152602001600020600101600083815260200190815260200160002060006101000a81548160ff0219169083151502179055506114a86115b0565b50565b60606005805480602002602001604051908101604052809291908181526020016000905b828210156115a75783829060005260206000209060030201604051806060016040529081600082018054611502906122f2565b80601f016020809104026020016040519081016040528092919081815260200182805461152e906122f2565b801561157b5780601f106115505761010080835404028352916020019161157b565b820191906000526020600020905b81548152906001019060200180831161155e57829003601f168201915b5050505050815260200160018201548152602001600282015481525050815260200190600101906114cf565b50505050905090565b600060028111156115ea577f4e487b7100000000000000000000000000000000000000000000000000000000600052602160045260246000fd5b600460159054906101000a900460ff166002811115611632577f4e487b7100000000000000000000000000000000000000000000000000000000600052602160045260246000fd5b141561170e5760035442106116a957600254471015611652576002611655565b60015b600460156101000a81548160ff0219169083600281111561169f577f4e487b7100000000000000000000000000000000000000000000000000000000600052602160045260246000fd5b021790555061170d565b6002544710156116ba5760006116bd565b60015b600460156101000a81548160ff02191690836002811115611707577f4e487b7100000000000000000000000000000000000000000000000000000000600052602160045260246000fd5b02179055505b5b565b82805461171c906122f2565b90600052602060002090601f01602090048101928261173e576000855561178c565b82601f1061174f578054855561178c565b8280016001018555821561178c57600052602060002091601f016020900482015b8281111561178b578254825591600101919060010190611770565b5b5090506117999190611863565b5090565b5080546117a9906122f2565b6000825580601f106117bb57506117da565b601f0160209004906000526020600020908101906117d99190611863565b5b50565b8280546117e9906122f2565b90600052602060002090601f01602090048101928261180b5760008555611852565b82601f1061182457805160ff1916838001178555611852565b82800160010185558215611852579182015b82811115611851578251825591602001919060010190611836565b5b50905061185f9190611863565b5090565b5b8082111561187c576000816000905550600101611864565b5090565b600061189361188e846120c9565b612098565b9050828152602081018484840111156118ab57600080fd5b6118b68482856122b0565b509392505050565b6000813590506118cd8161244e565b92915050565b600082601f8301126118e457600080fd5b81356118f4848260208601611880565b91505092915050565b60008135905061190c81612465565b92915050565b60006020828403121561192457600080fd5b6000611932848285016118be565b91505092915050565b6000806040838503121561194e57600080fd5b600061195c858286016118be565b925050602061196d858286016118fd565b9150509250929050565b6000806040838503121561198a57600080fd5b600083013567ffffffffffffffff8111156119a457600080fd5b6119b0858286016118d3565b92505060206119c1858286016118fd565b9150509250929050565b6000602082840312156119dd57600080fd5b60006119eb848285016118fd565b91505092915050565b6000611a008383611ddc565b905092915050565b611a1181612243565b82525050565b6000611a2282612109565b611a2c818561212c565b935083602082028501611a3e856120f9565b8060005b85811015611a7a5784840389528151611a5b85826119f4565b9450611a668361211f565b925060208a01995050600181019050611a42565b50829750879550505050505092915050565b611a9581612255565b82525050565b611aa48161229e565b82525050565b6000611ab582612114565b611abf818561213d565b9350611acf8185602086016122bf565b611ad881612429565b840191505092915050565b6000611aee82612114565b611af8818561214e565b9350611b088185602086016122bf565b611b1181612429565b840191505092915050565b6000611b29601e8361214e565b91507f416d6f756e74206d7573742062652067726561746572207468616e20302e00006000830152602082019050919050565b6000611b6960168361214e565b91507f526566756e6473206e6f7420617661696c61626c652e000000000000000000006000830152602082019050919050565b6000611ba9600d8361214e565b91507f496e76616c696420746965722e000000000000000000000000000000000000006000830152602082019050919050565b6000611be9600d8361214e565b91507f4e6f7420746865206f776e6572000000000000000000000000000000000000006000830152602082019050919050565b6000611c2960178361214e565b91507f43616d706169676e206973206e6f74206163746976652e0000000000000000006000830152602082019050919050565b6000611c6960198361214e565b91507f4e6f20636f6e747269627574696f6e20746f20726566756e64000000000000006000830152602082019050919050565b6000611ca960148361214e565b91507f5469657220646f6573206e6f742065786973742e0000000000000000000000006000830152602082019050919050565b6000611ce960168361214e565b91507f4e6f2062616c616e636520746f207769746864726177000000000000000000006000830152602082019050919050565b6000611d2960188361214e565b91507f43616d706169676e206e6f74207375636365737366756c2e00000000000000006000830152602082019050919050565b6000611d6960118361214e565b91507f496e636f727265637420616d6f756e742e0000000000000000000000000000006000830152602082019050919050565b6000611da960138361214e565b91507f436f6e7472616374206973207061757365642e000000000000000000000000006000830152602082019050919050565b60006060830160008301518482036000860152611df98282611aaa565b9150506020830151611e0e6020860182611e2c565b506040830151611e216040860182611e2c565b508091505092915050565b611e3581612294565b82525050565b611e4481612294565b82525050565b6000602082019050611e5f6000830184611a08565b92915050565b60006020820190508181036000830152611e7f8184611a17565b905092915050565b6000602082019050611e9c6000830184611a8c565b92915050565b6000602082019050611eb76000830184611a9b565b92915050565b60006020820190508181036000830152611ed78184611ae3565b905092915050565b60006060820190508181036000830152611ef98186611ae3565b9050611f086020830185611e3b565b611f156040830184611e3b565b949350505050565b60006020820190508181036000830152611f3681611b1c565b9050919050565b60006020820190508181036000830152611f5681611b5c565b9050919050565b60006020820190508181036000830152611f7681611b9c565b9050919050565b60006020820190508181036000830152611f9681611bdc565b9050919050565b60006020820190508181036000830152611fb681611c1c565b9050919050565b60006020820190508181036000830152611fd681611c5c565b9050919050565b60006020820190508181036000830152611ff681611c9c565b9050919050565b6000602082019050818103600083015261201681611cdc565b9050919050565b6000602082019050818103600083015261203681611d1c565b9050919050565b6000602082019050818103600083015261205681611d5c565b9050919050565b6000602082019050818103600083015261207681611d9c565b9050919050565b60006020820190506120926000830184611e3b565b92915050565b6000604051905081810181811067ffffffffffffffff821117156120bf576120be6123fa565b5b8060405250919050565b600067ffffffffffffffff8211156120e4576120e36123fa565b5b601f19601f8301169050602081019050919050565b6000819050602082019050919050565b600081519050919050565b600081519050919050565b6000602082019050919050565b600082825260208201905092915050565b600082825260208201905092915050565b600082825260208201905092915050565b600061216a82612294565b915061217583612294565b9250827fffffffffffffffffffffffffffffffffffffffffffffffffffffffffffffffff038211156121aa576121a961236d565b5b828201905092915050565b60006121c082612294565b91506121cb83612294565b9250817fffffffffffffffffffffffffffffffffffffffffffffffffffffffffffffffff04831182151516156122045761220361236d565b5b828202905092915050565b600061221a82612294565b915061222583612294565b9250828210156122385761223761236d565b5b828203905092915050565b600061224e82612274565b9050919050565b60008115159050919050565b600081905061226f8261243a565b919050565b600073ffffffffffffffffffffffffffffffffffffffff82169050919050565b6000819050919050565b60006122a982612261565b9050919050565b82818337600083830152505050565b60005b838110156122dd5780820151818401526020810190506122c2565b838111156122ec576000848401525b50505050565b6000600282049050600182168061230a57607f821691505b6020821081141561231e5761231d6123cb565b5b50919050565b600061232f82612294565b91507fffffffffffffffffffffffffffffffffffffffffffffffffffffffffffffffff8214156123625761236161236d565b5b600182019050919050565b7f4e487b7100000000000000000000000000000000000000000000000000000000600052601160045260246000fd5b7f4e487b7100000000000000000000000000000000000000000000000000000000600052602160045260246000fd5b7f4e487b7100000000000000000000000000000000000000000000000000000000600052602260045260246000fd5b7f4e487b7100000000000000000000000000000000000000000000000000000000600052604160045260246000fd5b6000601f19601f8301169050919050565b6003811061244b5761244a61239c565b5b50565b61245781612243565b811461246257600080fd5b50565b61246e81612294565b811461247957600080fd5b5056fea2646970667358221220c9ee6857d3ac69e064dc64d4a895c2fbf4c30579ad70895eeb032cd7f3d6505664736f6c63430008000033a2646970667358221220ebbd14d8d6d9bad3cb578e01c844d89c9e46f823942e857b3db3264a542daaf664736f6c63430008000033",
  "immutableReferences": {},
  "source": "// SPDX-License-Identifier: MIT\r\npragma solidity ^0.8.0;\r\n\r\nimport {Crowdfunding} from \"./Crowdfunding.sol\";\r\n\r\ncontract CrowdfundingFactory {\r\n    address public owner;\r\n    bool public paused;\r\n\r\n    struct Campaign {\r\n        address campaignAddress;\r\n        address owner;\r\n        string name;\r\n        uint256 creationTime;\r\n    }\r\n\r\n    Campaign[] public campaigns;\r\n    mapping(address => Campaign[]) public userCampaigns;\r\n\r\n    modifier onlyOwner() {\r\n        require(msg.sender == owner, \"Not owner.\");\r\n        _;\r\n    }\r\n\r\n    modifier notPaused() {\r\n        require(!paused, \"Factory is paused\");\r\n        _;\r\n    }\r\n\r\n    constructor() {\r\n        owner = msg.sender;\r\n    }\r\n\r\n    function createCampaign(\r\n        string memory _name,\r\n        string memory _description,\r\n        uint256 _goal,\r\n        uint256 _durationInDays\r\n    ) external notPaused {\r\n        Crowdfunding newCampaign = new Crowdfunding(\r\n            msg.sender,\r\n            _name,\r\n            _description,\r\n            _goal,\r\n            _durationInDays\r\n        );\r\n        address campaignAddress = address(newCampaign);\r\n\r\n        Campaign memory campaign = Campaign({\r\n            campaignAddress: campaignAddress,\r\n            owner: msg.sender,\r\n            name: _name,\r\n            creationTime: block.timestamp\r\n        });\r\n\r\n        campaigns.push(campaign);\r\n        userCampaigns[msg.sender].push(campaign);\r\n    }\r\n\r\n    function getUserCampaigns(address _user) external view returns (Campaign[] memory) {\r\n        return userCampaigns[_user];\r\n    }\r\n\r\n    function getAllCampaigns() external view returns (Campaign[] memory) {\r\n        return campaigns;\r\n    }\r\n\r\n    function togglePause() external onlyOwner {\r\n        paused = !paused;\r\n    }\r\n}",
  "sourcePath": "K:\\Website\\Celebrating Life\\BDC\\web3appcontract\\contracts\\CrowdfundingFactory.sol",
  "compiler": {
    "name": "solc",
    "version": "0.8.0+commit.c7dfd78e.Emscripten.clang"
  },
  "schemaVersion": "3.4.16",
  "updatedAt": "2025-03-26T11:31:51.883Z",
  "networkType": "ethereum",
  "devdoc": {
    "kind": "dev",
    "methods": {},
    "version": 1
  },
  "userdoc": {
    "kind": "user",
    "methods": {},
    "version": 1
  }
}